{
  "contractName": "RichToken",
  "abi": [
    {
      "payable": true,
      "stateMutability": "payable",
      "type": "fallback"
    },
    {
      "constant": true,
      "inputs": [
        {
          "internalType": "address",
          "name": "",
          "type": "address"
        }
      ],
      "name": "contributor_to_ethAmount_map",
      "outputs": [
        {
          "internalType": "uint256",
          "name": "",
          "type": "uint256"
        }
      ],
      "payable": false,
      "stateMutability": "view",
      "type": "function"
    },
    {
      "constant": true,
      "inputs": [
        {
          "internalType": "uint256",
          "name": "",
          "type": "uint256"
        }
      ],
      "name": "contributors",
      "outputs": [
        {
          "internalType": "address",
          "name": "",
          "type": "address"
        }
      ],
      "payable": false,
      "stateMutability": "view",
      "type": "function"
    },
    {
      "constant": false,
      "inputs": [],
      "name": "contribute",
      "outputs": [
        {
          "internalType": "uint256",
          "name": "",
          "type": "uint256"
        }
      ],
      "payable": true,
      "stateMutability": "payable",
      "type": "function"
    },
    {
      "constant": false,
      "inputs": [],
      "name": "withdrawAll",
      "outputs": [
        {
          "internalType": "uint256",
          "name": "",
          "type": "uint256"
        }
      ],
      "payable": true,
      "stateMutability": "payable",
      "type": "function"
    }
  ],
  "bytecode": "0x608060405234801561001057600080fd5b506103fe806100206000396000f3fe60806040526004361061003f5760003560e01c8063013c6fb9146100415780633cb5d100146100a6578063853828b614610121578063d7bb99ba1461013f575b005b34801561004d57600080fd5b506100906004803603602081101561006457600080fd5b81019080803573ffffffffffffffffffffffffffffffffffffffff16906020019092919050505061015d565b6040518082815260200191505060405180910390f35b3480156100b257600080fd5b506100df600480360360208110156100c957600080fd5b8101908080359060200190929190505050610175565b604051808273ffffffffffffffffffffffffffffffffffffffff1673ffffffffffffffffffffffffffffffffffffffff16815260200191505060405180910390f35b6101296101b1565b6040518082815260200191505060405180910390f35b6101476102a3565b6040518082815260200191505060405180910390f35b60006020528060005260406000206000915090505481565b6001818154811061018257fe5b906000526020600020016000915054906101000a900473ffffffffffffffffffffffffffffffffffffffff1681565b6000806000803373ffffffffffffffffffffffffffffffffffffffff1673ffffffffffffffffffffffffffffffffffffffff1681526020019081526020016000205490503373ffffffffffffffffffffffffffffffffffffffff168160405180600001905060006040518083038185875af1925050503d8060008114610253576040519150601f19603f3d011682016040523d82523d6000602084013e610258565b606091505b50505060008060003373ffffffffffffffffffffffffffffffffffffffff1673ffffffffffffffffffffffffffffffffffffffff168152602001908152602001600020819055505090565b600080341180156102bc5750678ac7230489e800003411155b610311576040517f08c379a000000000000000000000000000000000000000000000000000000000815260040180806020018281038252602f81526020018061039b602f913960400191505060405180910390fd5b6000803373ffffffffffffffffffffffffffffffffffffffff1673ffffffffffffffffffffffffffffffffffffffff1681526020019081526020016000205434016000803373ffffffffffffffffffffffffffffffffffffffff1673ffffffffffffffffffffffffffffffffffffffff168152602001908152602001600020819055503490509056fe796f75206f6e6c792063616e20636f6e7472696275746520757020746f2031302065746820617420612074696d6521a265627a7a723158207e317dcfd213eb974a0348b5ebc03b333086109ac93aeb20cd50ee16c37f490164736f6c63430005100032",
  "source": "pragma solidity 0.5.16;\n\n\n\ncontract RichToken{\n\n\n    mapping(address => uint) public contributor_to_ethAmount_map;\n    address[] public contributors;\n\n    //contribute eth\n    function contribute() public payable returns (uint) {\n        require(msg.value > 0 && msg.value <= 10 ether, \"you only can contribute up to 10 eth at a time!\");\n        contributor_to_ethAmount_map[msg.sender] = msg.value + contributor_to_ethAmount_map[msg.sender];\n\n        return msg.value;\n    }\n\n\n    //withdraw your eth\n    function withdrawAll() public payable returns (uint) {\n        uint amount = contributor_to_ethAmount_map[msg.sender];\n\n        msg.sender.call.value(amount)(\"\");\n\n        contributor_to_ethAmount_map[msg.sender] = 0;\n    }\n\n\n    //fall back\n    function () payable external {\n\n    }\n}\n",
  "sourcePath": "/Users/main/Documents/macDocumentBackup062020/coding/playground/re-entrancySolidity/contracts/RichToken.sol",
  "compiler": {
    "name": "solc",
    "version": "0.5.16+commit.9c3226ce.Emscripten.clang"
  },
  "schemaVersion": "3.2.3",
  "updatedAt": "2021-01-22T06:50:54.111Z",
  "networkType": "ethereum",
  "devdoc": {
    "methods": {}
  },
  "userdoc": {
    "methods": {}
  }
}